:020000040800F2
:100000000080012081490008C5490008C549000851
:10001000C5490008C5490008C5490008000000009E
:10002000000000000000000000000000C5490008BA
:10003000C549000800000000C54900081343000836
:10004000C5490008C5490008C5490008C549000858
:10005000C5490008C5490008C5490008C549000848
:10006000C5490008C5490008C5490008C549000838
:10007000C5490008C5490008C5490008C549000828
:10008000C5490008C5490008C5490008000000002E
:10009000000000000000000000000000C54900084A
:1000A000C5490008C5490008C5490008C5490008F8
:1000B000C5490008C5490008C5490008C5490008E8
:1000C000C5490008C5490008C5490008CD400008D9
:1000D000294100081F4900084149000800000000AC
:1000E000C5490008C5490008C549000800000000CE
:1000F000000000000000000000000000C5490008EA
:1001000000000000C5490008C5490008C5490008AD
:1001100000000000000000000000000000000000DF
:10012000C5490008C5490008C5490008C549000877
:10013000C5490008000000000000000000000000A9
:10014000000000000000000000000000C549000899
:10015000C5490008C5490008C549000861490008AB
:10016000C5490008C5490008000000000000000063
:10017000000000000000000000000000000000007F
:1001800000000000C5490008000000000000000059
:04019000C549000855
:1001940010B5054C237833B9044B13B10448AFF3BD
:1001A40000800123237010BDB00000200000000077
:1001B4004452000808B5034B1BB103490348AFF38D
:1001C400008008BD00000000B40000204452000874
:1001D400A3F5803A704700BF174B002B08BF134BA1
:1001E4009D46FFF7F5FF00218B460F461348144A3E
:1001F400121A04F086FD0E4B002B00D098470D4BCD
:10020400002B00D098470020002104000D000D4869
:10021400002802D00C48AFF3008004F01DFE20003B
:10022400290000F0FFFF04F0CDFB00BF0000080030
:10023400000000000000000000000000B0000020EA
:10024400A004002000000000000000006854000822
:1002540000000020B0000020B0000020A004002016
:1002640080B500AF044B00221A7000F04BF9034B29
:10027400034A1A6000BF80BDCC00002004000020A7
:100284008902000880B500AF064B01221A7000F005
:100294003DFA054B01221A70044B054A1A6000BF4F
:1002A40080BD00BFCC00002082010020040000209B
:1002B400B902000880B500AF104B02221A7000F09A
:1002C40095FB0F4B1B78DBB2002B0DD00D4B1B782D
:1002D400032B03D00C4B0D4A1A6005E0084B002297
:1002E4001A700B4800F018FF0A4B1B78DBB2002B86
:1002F40002D0054B084A1A6000BF80BDCC00002024
:10030400810100200800002004000020ED03000803
:1003140000440040800100202103000880B582B021
:1003240000AF284B03221A70274B00221A701622A2
:100334002649274804F01AFAFB1D012219462448CD
:1003440004F044FAFB1D01221946214804F0D4F9B3
:10035400FB79184600F09CFB0346002B0FD0FB7979
:10036400184600F0BBFB0346002B08D0FB79184667
:1003740000F022FC0346002B01D0012300E00023FF
:10038400012B0CD1134B1B78013BDAB2114B1A70C1
:1003940000F05FFDFB79184600F0CCFB01E000F0B3
:1003A4004BFE0C4B1B78002B01D00B4B00E00B4B8E
:1003B4000B4A13600B4B01221A7000BF0837BD466D
:1003C40080BD00BFCC0000208001002084520008C2
:1003D4000010014008000020B9020008B904000818
:1003E400040000208201002080B582B000AF284BB9
:1003F40004221A70274B00221A7016222649274815
:1004040004F0B4F9FB1D01221946244804F0DEF976
:10041400FB1D01221946214804F06EF9FB791846A8
:1004240000F036FB0346002B0FD0FB79184600F092
:1004340055FB0346002B08D1FB79184600F0BCFBA2
:100444000346002B01D0012300E00023012B0CD133
:10045400134B1B780133DAB2114B1A7000F072FDA2
:10046400FB79184600F066FB01E000F0E5FD0C4B5B
:100474001B78002B01D00B4B00E00B4B0B4A136095
:100484000B4B01221A7000BF0837BD4680BD00BF68
:10049400CC00002081010020845200080044004068
:1004A40008000020B9020008B90400080400002074
:1004B4008201002080B500AF0C4B05221A7000F0B9
:1004C40095FA0B4B1B78DBB2002B05D0084B0022AE
:1004D4001A70084800F020FE074B1B78DBB2002B93
:1004E40002D0064B064A1A6000BF80BDCC00002033
:1004F4008001002000100140810100200400002040
:10050400ED03000880B500AF002003F095F9012049
:1005140003F092F9042003F08FF9032003F08CF91F
:10052400102003F089F901F0EFF86B4B6B4A1A6065
:10053400694B01221A75684B0B22DA80664B012243
:100544001A71654B0022DA60634B00229A60624B99
:1005540002225A71604801F03EFD614B5F4A1A6005
:100564005F4B01221A755E4B0022DA805C4B01223C
:100574001A715B4B0022DA60594B00229A60584B87
:1005840002225A71564801F026FD564B01221A7078
:10059400544B554A5A60534B0622DA70514B0C2285
:1005A4009A70504B0A225A814E4B0B221A814D4BA2
:1005B4000C229A824B4B0D22DA824A4B0E221A836A
:1005C400484B0F225A83474801F054FA474B012203
:1005D4001A70464B414A5A60444B0622DA70434B28
:1005E4000C229A70414B05221A81404B06225A81F3
:1005F4003E4B0C229A823D4B0D22DA823B4B0E225B
:100604001A833A4B0F225A83384801F033FA384B95
:100614000C221A70364B4FF4E1325A60344B0022EC
:100624001A75334B20225A75314B324A9A61304B3A
:100634000022DA602E4B00221A722D4B00221A611E
:100644002B492D4803F0CEFE2C4B0C221A702B4B59
:100654004FF4E1325A60294B00221A75274B2022AD
:100664005A75264B264A9A61244B0022DA60234BA2
:1006740000221A72214B00221A612049214803F0FA
:10068400B1FE214B00221A701F4B00225A601E4BF0
:1006940007225A801C4B02225A701B490F4801F052
:1006A400ADFD194B00221A70174B00225A60164BED
:1006B40001225A80144B02225A701349074801F050
:1006C4009DFD03F039FE01F00DFD01F051FD01F037
:1006D400A3F800BF80BD00BFD0000020000002408E
:1006E400E800002000010020000C02401C01002052
:1006F40038010020F91100080010014054010020C5
:1007040011120008004400407001002080B58EB032
:1007140006AF01238022A249A24801F00EFC012366
:10072400C022A1499F4801F008FC01F0BFF803462C
:10073400FB71FB79462BF8D0FB791946994801F0F7
:10074400E5FA9A4AFB7913700121964801F001FAFF
:10075400012380229649934801F0EFFB0123C02234
:100764009449904801F0E9FB0023FB6120E001F08B
:100774009DF80346FB71FB79462BF8D08E4AFB6942
:100784001344FA791A70FB69DBB2F979942285482B
:1007940001F099FB0023BB6102E0BB690133BB613B
:1007A400BB6947F22F529342F7DDFB690133FB61CA
:1007B400FB69032BDBDD01217A4801F0CAF901232F
:1007C40080227E49774801F0B8FB0223C0227C498D
:1007D400744801F0B2FB01F069F80346FB71FB7940
:1007E400462BF8D0FB7919466E4801F08FFA6F4A10
:1007F400FB79537001216B4801F0ABF9012380228E
:100804007049684801F099FB0123C0226E4965488C
:1008140001F093FB00237B6120E001F047F80346DD
:10082400FB71FB79462BF8D0684A7B691344FA794B
:100834001A707B69DBB2F97994225A4801F043FBC0
:1008440000233B6102E03B6901333B613B6947F2B2
:100854002F529342F7DD7B6901337B617B69032B64
:10086400DBDD01214F4801F074F90123802258494E
:100874004C4801F062FB0223C0225649494801F06A
:100884005CFB01F013F80346FB71FB79462BF8D0AF
:10089400FB791946434801F039FA444AFB799370CD
:1008A4000121404801F055F9012380224A493D487D
:1008B40001F043FB0123C02248493A4801F03DFBC3
:1008C4000023FB6020E000F0F1FF0346FB71FB799D
:1008D400462BF8D0424AFB681344FA791A70FB6835
:1008E400DBB2F97994222F4801F0EDFA0023BB60C2
:1008F40002E0BB680133BB60BB6847F22F529342EE
:10090400F7DDFB680133FB60FB68032BDBDD354B54
:10091400049304230393324B0293042301932B4B3C
:1009240000930423244A0321204800F02FFA0F22C5
:100934002C4940F6AF2000F007FF0121194801F0CF
:1009440008F9032380222849164801F0F6FA062301
:10095400C0221549134801F0F0FA144B1B781946CC
:10096400104801F0D3F90223942215490D4801F0EF
:10097400E4FA0E4B5B7819460A4801F0C7F90223E2
:10098400D4221449074801F0D8FA084B9B78194639
:10099400044801F0BBF900BF2037BD4680BD00BF4D
:1009A4009C52000800010020AC5200088401002081
:1009B400B8520008CC52000888010020E052000818
:1009C400F0520008FC520008105300088C0100206B
:1009D40024530008345300084053000854530008BB
:1009E40090010020940100206853000880B500AFF6
:1009F4001F4B1B78002B38D01D4B00221A7001218D
:100A04001C4801F0A6F81C4B1B78002B12D10423C0
:100A140080221A49174801F090FA0123C02218498C
:100A2400144801F08AFAFD2394221649114801F072
:100A340084FA1AE00423802210490E4801F07DFA5A
:100A44000123C02210490B4801F077FA0A4B1B78A6
:100A54003033D9B2FE239422064801F034FA00233D
:100A640094220A49034801F068FA00BF80BD00BF20
:100A7400820100201C010020080000207853000897
:100A8400885300089C530008AC530008C053000866
:100A940080B485B000AF0346FB710023BB73002311
:100AA400FB730BE0FB7B0C4AD35CFA799A4202D1CC
:100AB4000123BB7305E0FB7B0133FB73FB7B022B40
:100AC400F0D9BB7B012B0CBF01230023DBB21846FA
:100AD4001437BD4680BC70478401002080B483B0C5
:100AE40000AF0346FB710F4B1B78FA799A4202D18F
:100AF4000D4B1B7810E00B4B5B78FA799A4202D1CC
:100B04000A4B1B7808E0074B9B78FA799A4202D18A
:100B1400074B1B7800E0002318460C37BD4680BC09
:100B2400704700BF84010020090000200A00002053
:100B34000B00002080B483B000AF0346FB711A4B56
:100B44001B78FA799A420AD1184B1B78002B0CBFF8
:100B540001230023DBB21A46144B1A701EE0124B19
:100B64005B78FA799A420AD1114B1B78002B0CBF9F
:100B740001230023DBB21A460D4B1A700EE00A4B18
:100B84009B78FA799A4209D10A4B1B78002B0CBF47
:100B940001230023DBB21A46064B1A7000BF0C3740
:100BA400BD4680BC704700BF8401002009000020BE
:100BB4000A0000200B00002080B58CB000AF034673
:100BC400FB7101216A4800F0C4FF012380226949B6
:100BD400674801F0B2F90123C0226749644801F073
:100BE400ACF9002387F82F30644B1B78FA799A42CA
:100BF40038D10023BB6231E000F058FE0346FB7499
:100C0400FB7C462BF8D007F10C02BB6A1344FA7C38
:100C14001A70BB6ADBB294222A21554801F053F9B9
:100C240000237B6202E07B6A01337B627B6A41F2D0
:100C340087329342F7DD07F10C02BB6A13441A783A
:100C44004F49BB6A0B441B789A4204D197F82F3062
:100C5400013387F82F30BB6A0133BB62BB6A032BB5
:100C6400CADD7AE0454B5B78FA799A4238D10023A1
:100C74003B6231E000F01AFE0346FB74FB7C462B1A
:100C8400F8D007F10C023B6A1344FA7C1A703B6AF1
:100C9400DBB294222A21364801F015F90023FB61C6
:100CA40002E0FB690133FB61FB6941F28732934245
:100CB400F7DD07F10C023B6A13441A7831493B6AA9
:100CC4000B441B789A4204D197F82F30013387F8EC
:100CD4002F303B6A01333B623B6A032BCADD3CE0A5
:100CE400264B9B78FA799A4237D10023BB6131E0D5
:100CF40000F0DCFD0346FB74FB7C462BF8D007F1C7
:100D04000C02BB691344FA7C1A70BB69DBB29422EF
:100D14002A21174801F0D7F800237B6102E07B69A0
:100D240001337B617B6941F287329342F7DD07F13E
:100D34000C02BB6913441A781349BB690B441B7832
:100D44009A4204D197F82F30013387F82F30BB69CA
:100D54000133BB61BB69032BCADD97F82F30042B29
:100D64000CBF01230023DBB218463037BD4680BDDB
:100D74001C010020CC530008DC530008840100202F
:100D8400880100208C0100209001002080B48BB0E9
:100D940000AFF860B9607A603B6000237B62002397
:100DA4003B620DE03B6AFA681A447B6A591C79621B
:100DB40019463B6C0B4412781A703B6A01333B6250
:100DC4003A6ABB689A42EDDB0023FB610DE0FB69E4
:100DD4007A681A447B6A591C796219463B6C0B4445
:100DE40012781A70FB690133FB61FA693B689A4215
:100DF400EDDB0023BB610DE0BB693A6B1A447B6AEF
:100E0400591C796219463B6C0B4412781A70BB6901
:100E14000133BB61BA697B6B9A42EDDB00237B61D2
:100E24000DE07B69BA6B1A447B6A591C79621946D6
:100E34003B6C0B4412781A707B6901337B617A69CD
:100E4400FB6B9A42EDDB00BF00BF2C37BD4680BC74
:100E5400704780B586B000AF0121364800F079FEB6
:100E64003549344801F04BF8002001F053F9334878
:100E740001F0DDF800237B6102E07B6901337B61D3
:100E84007B694CF24F329342F7DD2C4801F0F3F8C2
:100E940000233B6102E03B6901333B613B694CF257
:100EA4004F329342F7DD254801F0C1F80023FB607F
:100EB40002E0FB680133FB60FB684CF24F32934263
:100EC400F7DD1E4801F0D7F80023BB6002E0BB68E1
:100ED4000133BB60BB684CF24F329342F7DD1748D5
:100EE40001F0A5F800237B6002E07B6801337B609E
:100EF4007B684CF24F329342F7DD104801F0BBF8A7
:100F040000233B6002E03B6801333B603B684CF2EA
:100F14004F329342F7DD00BF0721094801F010FB6F
:100F24000346002BF8D1012001F0F4F800BF183774
:100F3400BD4680BD1C010020EC530008D0000020F9
:100F44000000024080B586B000AF0121364800F0B1
:100F540000FE3649344800F0D2FF002001F020F9A9
:100F6400334801F064F800237B6102E07B690133BC
:100F74007B617B694CF24F329342F7DD2C4801F0E0
:100F84007AF800233B6102E03B6901333B613B6932
:100F94004CF24F329342F7DD254801F048F8002324
:100FA400FB6002E0FB680133FB60FB684CF24F32EC
:100FB4009342F7DD1E4801F05EF80023BB6002E0B7
:100FC400BB680133BB60BB684CF24F329342F7DD20
:100FD400174801F02CF800237B6002E07B680133A2
:100FE4007B607B684CF24F329342F7DD104801F08E
:100FF40042F800233B6002E03B6801333B603B68FE
:101004004CF24F329342F7DD00BF0121094801F051
:1010140097FA0346002BF8D1012001F0C1F800BF74
:101024001837BD4680BD00BF1C01002000540008D5
:10103400D00000200000024080B586B000AF01213E
:10104400324800F086FD3249304800F058FF012054
:1010540001F060F8012001F0A3F82E4800F0E7FF4A
:1010640000237B6102E07B6901337B617B694CF285
:101074004F329342F7DD274800F0FDFF00233B6128
:1010840002E03B6901333B613B694CF24F329342CE
:10109400F7DD204800F0CBFF0023FB6002E0FB6893
:1010A4000133FB60FB684CF24F329342F7DD194881
:1010B40000F0E1FF0023BB6002E0BB680133BB60CA
:1010C400BB684CF24F329342F7DD124800F0AFFF99
:1010D40000237B6002E07B6801337B607B684CF219
:1010E4004F329342F7DD0B4800F0C5FF00233B600D
:1010F40002E03B6801333B603B684CF24F32934261
:10110400F7DD00BF00BF1837BD4680BD1C010020BD
:1011140014540008E800002080B58AB000AF78605D
:1011240007F10F0301221946786803F04FFB07F11A
:101134000F0301221946786803F0DEFA2C4800F008
:1011440076FF00237B6202E07B6A01337B627B6A69
:101154004CF24F329342F7DD254800F08CFF002318
:101164003B6202E03B6A01333B623B6A4CF24F3222
:101174009342F7DD1E4800F05AFF0023FB6102E0B2
:10118400FB690133FB61FB694CF24F329342F7DD9B
:10119400174800F070FF0023BB6102E0BB69013314
:1011A400BB61BB694CF24F329342F7DD104800F04B
:1011B4003EFF00237B6102E07B6901337B617B6935
:1011C4004CF24F329342F7DD094800F054FF0023FC
:1011D4003B6102E03B6901333B613B694CF24F32B6
:1011E4009342F7DD00BF00BF2837BD4680BD00BF76
:1011F400E800002080B400AF034B01221A7000BF46
:10120400BD4680BC704700BF8001002080B400AFA1
:10121400034B01221A7000BFBD4680BC704700BF5B
:101224008101002080B500AF014B1B689847FBE7A4
:101234000400002080B400AF00BFBD4680BC7047EE
:1012440080B400AF01231846BD4680BC704780B50A
:1012540082B000AF7860396003F0F8FD03461622CF
:101264001A604FF0FF3318460837BD4680BD80B57D
:1012740082B000AF78604FF0FF317868FFF7E7FF86
:1012840000BFFDE780B586B000AFF860B9607A6052
:1012940000237B610AE0AFF300800146BB685A1C5F
:1012A400BA60CAB21A707B6901337B617A697B6860
:1012B4009A42F0DB7B6818461837BD4680BD80B57E
:1012C40086B000AFF860B9607A6000237B6109E002
:1012D400BB685A1CBA601B781846AFF300807B6960
:1012E40001337B617A697B689A42F1DB7B6818463B
:1012F4001837BD4680BD80B483B000AF78604FF02E
:10130400FF3318460C37BD4680BC704780B483B0A9
:1013140000AF786039603B684FF400525A60002394
:1013240018460C37BD4680BC704780B483B000AF0C
:101334007860012318460C37BD4680BC704780B4E2
:1013440085B000AFF860B9607A600023184614379E
:10135400BD4680BC70470EB480B482B000AF7860E4
:101364004FF0FF3318460837BD4680BC03B07047C2
:1013740080B582B000AF786003F068FD03460A22AE
:101384001A604FF0FF3318460837BD4680BD80B55C
:1013940082B000AF786003F059FD034602221A6060
:1013A4004FF0FF3318460837BD4680BD80B483B084
:1013B40000AF78604FF0FF3318460C37BD4680BC51
:1013C400704780B483B000AF786039603B684FF4F5
:1013D40000525A60002318460C37BD4680BC704743
:1013E40080B582B000AF7860396003F02FFD03460A
:1013F4001F221A604FF0FF3318460837BD4680BDE0
:1014040080B500AF03F022FD03460B221A604FF0B3
:10141400FF33184680BD80B584B000AFF860B96072
:101424007A6003F013FD03460C221A604FF0FF3379
:1014340018461037BD4680BD80B586B000AF7860D1
:10144400144A154BD31A7B617B693B61134B1B68B0
:10145400002B02D1114B124A1A60104B1A687B6898
:1014640013443A699A4207D203F0F0FC03460C2273
:101474001A604FF0FF3309E0084B1B68FB60074B11
:101484001A687B681344054A1360FB6818461837CA
:10149400BD4680BD0080012000040000A80100209A
:1014A400A004002080B400AF034B4FF000629A60A8
:1014B40000BFBD4680BC704700ED00E080B500AFC2
:1014C400124B1B68114A43F0010313600F4B0022B7
:1014D4009A600E4B1B680D4A23F0847323F4803307
:1014E40013600A4B0A4A5A60084B1B68074A23F4E4
:1014F40080231360054B0022DA6000F08DF8054B61
:101504004FF000629A6000BF80BD00BF0038024007
:101514001030002400ED00E080B487B000AF002359
:101524003B6100237B610223FB600023BB60022339
:101534007B60344B9B6803F00C033B613B69082BD5
:1015440011D03B69082B44D83B69002B03D03B697D
:10155400042B04D03DE02C4B2C4A1A603DE02A4B6E
:101564002B4A1A6039E0274B5B689B0D03F001039B
:10157400BB60244B5B6803F03F037B60BB68002BBC
:101584000CD0234A7B68B2FBF3F31E4A52689209DB
:10159400C2F3080202FB03F37B610BE01B4A7B6886
:1015A400B2FBF3F3174A52689209C2F3080202FB32
:1015B40003F37B61134B5B681B0C03F003030133E0
:1015C4005B00FB607A69FB68B2FBF3F30E4A1360BD
:1015D40003E00D4B0D4A1A6000BF0A4B9B681B09C0
:1015E40003F00F030B4AD35CDBB23B61064B1A6872
:1015F4003B6922FA03F3044A136000BF1C37BD465B
:1016040080BC704700380240100000200024F40021
:1016140040787D011400002080B483B000AF002323
:101624007B6000233B60344B1B68334A43F48033B4
:101634001360314B1B6803F400333B607B68013358
:101644007B603B68002B03D17B68B3F5A04FF0D1DE
:10165400294B1B6803F40033002B02D001233B60A9
:1016640001E000233B603B68012B40D1224B1B6C03
:10167400214A43F080531364204B1B681F4A43F4F0
:10168400404313601C4B1C4A9B6893601A4B1A4AD4
:101694009B689360184B9B68174A43F4805393608C
:1016A400154B174A5A60144B1B68134A43F0807356
:1016B400136000BF104B1B6803F00073002BF9D0BC
:1016C400104B40F202721A600B4B9B680A4A23F0DB
:1016D40003039360084B9B68074A43F0020393603B
:1016E40000BF054B9B6803F00C03082BF9D100BF26
:1016F4000C37BD4680BC7047003802400070004083
:1017040019544107003C024080B588B000AF402323
:10171400BB614FF480637B61094B3B600023BB607A
:101724000023FB6100237B60064801F0DBF83B46A5
:101734001946044800F0A2FF00BF2037BD4680BD13
:10174400A08601000054004080B588B002AFF86064
:10175400B9601346FB71FB681B0ADAB2154B1A70A9
:10176400FB68DAB2134B5A700223FB750AE0FB7D67
:10177400023BBA681A44FB7D11780E4AD154FB7DB2
:101784000133FB75FB795A1CFB7D9A42EFDAFB7936
:1017940002331A4600230193002300931346054A9B
:1017A4005021054801F0E4F8002318461837BD46D7
:1017B40080BD00BFAC0100200054004080B586B05D
:1017C40002AFF860B9601346FB71FB681B0ADAB21A
:1017D4000F4B1A70FB68DAB20D4B5A700023019359
:1017E4000123009302230A4A50210A4801F0C0F859
:1017F400FB790122019200220092BA685021054827
:1018040001F019FD002318461037BD4680BD00BF06
:10181400AC0100200054004080B586B000AF012325
:101824003B710023FB600023BB6002237B71002318
:10183400FB7515E0FB7D1A4A32F81330FB803B1D23
:101844001946184800F0DAFCFB7D154A32F81330CB
:1018540000221946134800F095FEFB7D0133FB7509
:10186400FB7D032BE6D900233B710223BB600023DD
:10187400BB750CE0BB7D0C4A32F81330FB803B1D7A
:101884001946084800F0BAFCBB7D0133BB75BB7D2B
:10189400022BEFD900BF00BF1837BD4680BD00BF83
:1018A40030000020001002403800002080B582B0D3
:1018B40000AF46237B710023FB7149E0FB79284A82
:1018C40032F8133001221946264800F05BFE00234B
:1018D400BB712EE0BB79244A32F8133019462148F3
:1018E40000F02EFE0346012B20D100BFBB791E4A17
:1018F40032F8133019461B4800F022FE0346012B30
:10190400F4D0FA79B979194813465B0013440344B7
:101914000B441B787B71FB79114A32F81330002297
:101924001946104800F02EFE7B7915E0BB7901338F
:10193400BB71BB79022BCDD9FB79094A32F813303C
:1019440000221946074800F01DFEFB790133FB71A4
:10195400FB79032BB2D97B7918460837BD4680BD85
:101964003000002000100240380000202400002035
:1019740080B586B000AF786001233B7200233B61E1
:101984000023FB6002237B727B681B897B817B685D
:101994005B6807F108021146184600F02FFC7B68CB
:1019A4005B897B817B685B6807F1080211461846F6
:1019B40000F024FC7B681B78002B2BD17B689B896F
:1019C4007B817B685B6807F108021146184600F0CA
:1019D40015FC7B68DB897B817B685B6807F1080207
:1019E4001146184600F00AFC7B681B8A7B817B68E1
:1019F4005B6807F108021146184600F0FFFB7B689C
:101A04005B8A7B817B685B6807F108021146184694
:101A140000F0F4FB7B689B8A7B817B685B6807F141
:101A240008021146184600F0E9FB7B68DB8A7B81DB
:101A34007B685B6807F108021146184600F0DEFB7C
:101A44007B681B8B7B817B685B6807F1080211460E
:101A5400184600F0D3FB7B685B8B7B817B685B68FB
:101A640007F108021146184600F0C8FB00BF1837FA
:101A7400BD4680BD80B582B000AF78607868FFF75E
:101A840077FF022002F02AFC7B681B78002B07D129
:101A94003821786800F05DF8012002F01FFC3BE07B
:101AA4007B681B78012B37D17B6858687B681B895E
:101AB4000022194600F066FD012002F00FFC7B684D
:101AC40058687B689B8A0022194600F05BFD7B689E
:101AD40058687B68DB8A2022194600F053FD7B6836
:101AE40058687B681B8B0022194600F04BFD7B680D
:101AF40058687B685B8B0022194600F043FD012087
:101B040002F0ECFB786800F031FA2821786800F0E4
:101B140020F8012002F0E2FB7B689B781946786884
:101B240000F017F8012002F0D9FB0121786800F0D9
:101B340010F8022002F0D2FB7B68DB781946786843
:101B440000F007F8012002F0C9FB00BF0837BD46CA
:101B540080BD80B582B000AF78600B46FB707B68B7
:101B640058687B681B890022194600F00BFD012090
:101B740002F0B4FB7B681B78002B58D17B68586853
:101B84007B689989FB7803F00103DBB21A4600F005
:101B9400F9FC7B6858687B68D989FB7803F00203F9
:101BA400DBB21A4600F0EEFC7B6858687B68198A41
:101BB400FB7803F00403DBB21A4600F0E3FC7B6815
:101BC40058687B68598AFB7803F00803DBB21A462D
:101BD40000F0D8FC7B6858687B68998AFB7803F02E
:101BE4001003DBB21A4600F0CDFC7B6858687B68B2
:101BF400D98AFB7803F02003DBB21A4600F0C2FC5A
:101C04007B6858687B68198BFB7803F04003DBB270
:101C14001A4600F0B7FC7B6858687B68598BFB78E0
:101C240023F07F03DBB21A4600F0ACFC61E07B6872
:101C34001B78012B5DD17B6858687B68998AFB7897
:101C440003F01003DBB21A4600F09CFC7B68586872
:101C54007B68D98AFB7803F02003DBB21A4600F0D4
:101C640091FC7B6858687B68198BFB7803F0400310
:101C7400DBB21A4600F086FC7B6858687B68598B97
:101C8400FB7823F07F03DBB21A4600F07BFC786814
:101C940000F06CF9012002F021FB7B6858687B6836
:101CA400998AFB7803F00103DBB21A4600F06AFC60
:101CB4007B6858687B68D98AFB7803F00203DBB23F
:101CC4001A4600F05FFC7B6858687B68198BFB78C8
:101CD40003F00403DBB21A4600F054FC7B68586836
:101CE4007B68598BFB7803F00803DBB21A4600F0DB
:101CF40049FC012002F0F2FA786800F037F9642018
:101D040002F0ECFA00BF0837BD4680BD80B582B052
:101D140000AF78600B46FB707B6858687B681B8952
:101D24000122194600F02EFC012002F0D7FA7B684C
:101D34001B78002B58D17B6858687B689989FB789D
:101D440003F00103DBB21A4600F01CFC7B68586800
:101D54007B68D989FB7803F00203DBB21A4600F0F2
:101D640011FC7B6858687B68198AFB7803F00403CC
:101D7400DBB21A4600F006FC7B6858687B68598A17
:101D8400FB7803F00803DBB21A4600F0FBFB7B6828
:101D940058687B68998AFB7803F01003DBB21A4613
:101DA40000F0F0FB7B6858687B68D98AFB7803F005
:101DB4002003DBB21A4600F0E5FB7B6858687B68B9
:101DC400198BFB7803F04003DBB21A4600F0DAFB10
:101DD4007B6858687B68598BFB7823F07F03DBB200
:101DE4001A4600F0CFFB61E07B681B78012B5DD1C4
:101DF4007B6858687B68998AFB7803F01003DBB230
:101E04001A4600F0BFFB7B6858687B68D98AFB7868
:101E140003F02003DBB21A4600F0B4FB7B68586879
:101E24007B68198BFB7803F04003DBB21A4600F0A1
:101E3400A9FB7B6858687B68598BFB7823F07F0388
:101E4400DBB21A4600F09EFB786800F08FF80120A0
:101E540002F044FA7B6858687B68998AFB7803F03F
:101E64000103DBB21A4600F08DFB7B6858687B687F
:101E7400D98AFB7803F00203DBB21A4600F082FB36
:101E84007B6858687B68198BFB7803F00403DBB22A
:101E94001A4600F077FB7B6858687B68598BFB789F
:101EA40003F00803DBB21A4600F06CFB012002F0D9
:101EB40015FA786800F05AF8642002F00FFA00BFAF
:101EC4000837BD4680BD80B582B000AF7860084653
:101ED40011461A460346FB700B46BB7013467B70D3
:101EE4007A78BB781946786800F05EF8FB78194672
:101EF4007868FFF70BFF00BF0837BD4680BD80B58B
:101F040084B000AF786039600023FB600AE0FB68AE
:101F14003A6813441B7819467868FFF7F7FEFB68A4
:101F24000133FB60FB683A6813441B78002BEED145
:101F340000BF00BF1037BD4680BD80B584B000AF80
:101F4400F860B96011461A460B46FB711346BB7123
:101F5400BA79FB791946F86800F026F8B968F86888
:101F6400FFF7CDFF00BF1037BD4680BD80B582B0FE
:101F740000AF78607B6858687B685B8901221946EA
:101F840000F000FB012002F0A9F97B6858687B6827
:101F94005B890022194600F0F5FA012002F09EF94F
:101FA40000BF0837BD4680BD80B582B000AF786001
:101FB4000B46FB701346BB70BB78013BBB70FA78D1
:101FC400BB781344DBB219467868FFF7C2FD00BF43
:101FD4000837BD4680BD80B582B000AF78607B68AD
:101FE400002B20D07B681A687B680433194610469E
:101FF40000F004F97B681B7D002B08D17B6818680E
:102004007B68DB880022194600F0BCFA0BE07B6891
:102014001B7D012B07D17B6818687B68DB88012254
:10202400194600F0AFFA00BF0837BD4680BD80B541
:1020340082B000AF78607B68002B18D07B681B7D72
:10204400002B08D17B6818687B68DB88012219465D
:1020540000F098FA0BE07B681B7D012B07D17B68AD
:1020640018687B68DB880022194600F08BFA00BFF1
:102074000837BD4680BD80B582B000AF78607B680C
:10208400002B18D07B681B7D002B08D17B68186857
:102094007B68DB880022194600F074FA0BE07B6849
:1020A4001B7D012B07D17B6818687B68DB880122C4
:1020B400194600F067FA00BF0837BD4680BD80B5F9
:1020C40082B000AF78607B68002B07D07B681A6809
:1020D4007B68DB881946104600F086FA00BF083793
:1020E400BD4680BD80B584B000AF08237B8001234A
:1020F4003B700023BB6000237B6002237B703B4664
:102104001946034800F07AF800BF1037BD4680BD79
:102114000004024080B582B000AF0346FB71FB7936
:10212400002B0ED101220821104800F02BFA4FF4A5
:10213400FA7002F029F9002208210C4800F022FA72
:1021440010E0FB79012B0DD101220821074800F092
:1021540019FA40F6B23002F017F9002208210348B8
:1021640000F010FA00BF0837BD4680BD00040240ED
:1021740080B584B000AF09237B8001233B7000232A
:10218400BB6000237B6002237B703B4619460348F7
:1021940000F034F800BF1037BD4680BD0004024093
:1021A40080B582B000AF0346FB71FB79002B0ED1E2
:1021B40001220921104800F0E5F94FF4FA7002F009
:1021C400E3F8002209210C4800F0DCF910E0FB7967
:1021D400012B0DD101220921074800F0D3F940F663
:1021E400B23002F0D1F800220921034800F0CAF904
:1021F40000BF0837BD4680BD0004024080B586B0EC
:1022040000AF786039603B685B88FB753B681B787E
:10221400032B17D87B681B68FA7D5200032101FA4F
:1022240002F2D2431A407B681A607B681B683A68E2
:1022340012781146FA7D520001FA02F21A437B68C1
:102244001A608AE03B681B78042B15D1804BDB684D
:10225400FA7D012101FA02F211467D4A0B43D36053
:102264007B4B9B68FA7D012101FA02F2D2431146AD
:10227400774A0B40936031E03B681B78052B15D1FE
:10228400734B9B68FA7D012101FA02F21146704AF0
:102294000B4393606E4BDB68FA7D012101FA02F275
:1022A400D24311466A4A0B40D36017E03B681B785F
:1022B400062B13D1664BDB68FA7D012101FA02F289
:1022C4001146634A0B43D360614B9B68FA7D01213D
:1022D40001FA02F211465E4A0B439360FB7D9B08B0
:1022E400DBB23B61FB7D9BB203F00303FB817B68A4
:1022F400584A934219D07B68574A934213D07B685B
:10230400564A93420DD07B68554A934207D07B6866
:10231400544A934201D1042308E0002306E0032336
:1023240004E0022302E0012300E00023BB8111202A
:1023340001F082FABA89FB899B004B499A403B69B8
:10234400023341F82320424B1B68FA7D012101FA34
:1023540002F211463E4A0B4313607B685B68FA7DC8
:10236400012101FA02F2D2431A407B685A607B6869
:102374005A683B689968FB7D01FA03F31A437B684A
:102384005A607B689B68FA7D5200032101FA02F2CD
:10239400D2431A407B689A607B689B683A6852789B
:1023A4001146FA7D520001FA02F21A437B689A60E0
:1023B4007B68DB68FA7D5200032101FA02F2D24302
:1023C4001A407B68DA607B68DA683B685968FB7D91
:1023D4005B0001FA03F31A437B68DA603B681B78FD
:1023E400022B31D1FB7D072B16D87B681B6AFA7D43
:1023F40092000F2101FA02F2D2431A407B681A625A
:102404007B681A6A3B68D968FB7D9B0001FA03F379
:102414001A437B681A6217E07B685B6AFA7D083AA4
:1024240092000F2101FA02F2D2431A407B685A62E9
:102434007B685A6A3B68D968FB7D083B9B0001FABC
:1024440003F31A437B685A6200BF1837BD4680BD48
:10245400003C014000000240000402400008024029
:10246400000C0240001002400038014080B483B0E8
:1024740000AF78607B682C4A93420CD12B4B1B69CC
:102484002A4A43F001031361284B1B69274A23F0AE
:102494000103136142E07B68254A93420CD1234B2C
:1024A4001B69224A43F002031361204B1B691F4A34
:1024B40023F00203136131E07B681E4A93420CD17E
:1024C4001A4B1B69194A43F004031361174B1B6928
:1024D400164A23F00403136120E07B68164A9342F2
:1024E4000CD1124B1B69114A43F0080313610F4BC3
:1024F4001B690E4A23F0080313610FE07B680F4A3F
:1025040093420BD1094B1B69084A43F01003136132
:10251400064B1B69054A23F01003136100BF0C37F7
:10252400BD4680BC704700BF000002400038024036
:102534000004024000080240000C02400010024067
:1025440080B485B000AF78600B467B807B681A69E5
:102554007B8822FA03F3DBB203F00103FB73FB7BFA
:1025640018461437BD4680BC704780B485B000AFB0
:1025740078607B681B69FB81FB8918461437BD466C
:1025840080BC704780B483B000AF78600B467B801A
:1025940013467B707B78002B09D07B685B697A8853
:1025A400012101FA02F21A437B685A6109E07B684F
:1025B4005A697B88012101FA03F3DB431A407B68E3
:1025C4005A6100BF0C37BD4680BC704780B483B0ED
:1025D40000AF78600B467B807A887B685A6100BFC5
:1025E4000C37BD4680BC704780B483B000AF7860C0
:1025F4000B467B807B685B697A88012101FA02F2D1
:102604005A407B685A6100BF0C37BD4680BC704796
:1026140080B483B000AF78607B685B6983F47F43E8
:1026240083F0FF037A68536100BF0C37BD4680BC5A
:10263400704780B485B000AF78600B467B807B88A0
:1026440043F48033FB60FA687B68DA617A887B68DC
:10265400DA61FA687B68DA617B68DB69FB607B6856
:10266400DB6903F48033002B01D0012300E0002355
:1026740018461437BD4680BC704700BFB0B586B05D
:1026840000AF786039600023FB820023BB82754B66
:102694003B610023FB817B68734A93420DD1734AEB
:1026A4003B6814461D460FCD0FC495E80F0084E81F
:1026B4000F000D2001F0C0F80DE06C4B3A6803F1F7
:1026C400200415460FCD0FC495E80F0084E80F00D1
:1026D4000E2001F0B1F83B689B68002B40F0B880F5
:1026E4007B685B68FB82FB8A23F03F03FB8201F07B
:1026F40025FA38613B695E4AA2FB03239B0CBB822B
:10270400FA8ABB8A1343FB82FA8A7B685A607B6825
:102714001B6823F001027B681A600023FB823B687C
:102724001B68B3F5A02F04D03B681B68514A934241
:1027340015D13B681B685B003A69B2FBF3F3FB817C
:102744007B68DB69FB82FA8AFB891343FB82FA8A82
:102754007B68DA61BB8A01331A467B681A627B683C
:102764001B68FB823B685B699AB23B685B689BB2FF
:1027740013439AB23B689B689BB213439AB2FB8A99
:102784001343FB82FA8A7B681A600023FB823B684E
:102794009B89012B0FD1FB8A43F00103FB823B6829
:1027A4001B8A5B001AB2B7F9163013431BB2FB82C3
:1027B400FA8A7B68DA600023FB823B68DB895B0072
:1027C4001AB2B7F9163013431BB2FB823B685B8A1B
:1027D4005B001AB2B7F9163013431BB2FB823B6895
:1027E400DB69002B11D07B685B6843F480627B68F3
:1027F4005A607B685B6843F480727B685A607B68CC
:102804005B6843F400727B685A607B68164A9342A3
:102814000CD1194B1B68184A43F000431360174B43
:102824001B68164A43F0010313600BE0134B1B684B
:10283400124A43F002031360104B1B680F4A43F023
:10284400040313607B6800225A617B6800229A614A
:102854007B681B6843F001027B681A6000BF18376D
:10286400BD46B0BD00127A0000540040AC02002006
:1028740083DE1B43A086010000E100E004E100E0E8
:1028840080B582B000AF78607B68134A93420FD161
:10289400124B1B68114A23F000431360104B1B6852
:1028A4000F4A23F0010313600D2001F067F80EE0D6
:1028B4000B4B1B680A4A23F002031360084B1B6886
:1028C400074A23F0040313600E2001F057F800BFF9
:1028D4000837BD4680BD00BF0054004080E100E0E1
:1028E40084E100E080B586B000AF78607B681E4A62
:1028F40093421AD102233B7202237B7206237B810B
:102904000023FB6001233B6104237B6107F108037F
:1029140019461648FFF772FC07237B8107F1080369
:1029240019461248FFF76AFC19E002233B7202239E
:102934007B720A237B810023FB6001233B61042318
:102944007B6107F1080319460848FFF757FC032386
:102954007B8107F1080319460448FFF74FFC00BFC9
:102964001837BD4680BD00BF00540040000402403B
:1029740080B5BEB000AFF8607A603B600B467B81E7
:1029840000237B6197F804311A460121F86800F0AE
:10299400A5FC00BF0121F86800F0E2FC0346002B0F
:1029A400F8D07B8900221946F86800F045FD00BF85
:1029B4000221F86800F0D4FC0346002BF8D000BFD5
:1029C400BB49F86800F0CCFC0346002BF8D07B69C7
:1029D4007A6813441B781A46FB681A610023C7F807
:1029E400F43004E0D7F8F4300133C7F8F430D7F802
:1029F400F43041F287329342F4DD00BF0421F868D9
:102A040000F0AEFC0346002BF8D00023C7F8F030EA
:102A140004E0D7F8F0300133C7F8F030D7F8F030DD
:102A240041F287329342F4DD0023C7F8EC3004E02E
:102A3400D7F8EC300133C7F8EC30D7F8EC3041F27A
:102A440087329342F4DD7B6901337B617B697A6869
:102A540013441B781A46FB681A610023C7F8E83050
:102A640004E0D7F8E8300133C7F8E830D7F8E830A5
:102A740041F287329342F4DD00BF0421F86800F08C
:102A84006FFC0346002BF8D00023C7F8E43004E0C1
:102A9400D7F8E4300133C7F8E430D7F8E43041F232
:102AA40087329342F4DD0023C7F8E03004E0D7F81E
:102AB400E0300133C7F8E030D7F8E03041F2873234
:102AC4009342F4DD3B68022B40F297837B69013328
:102AD4007B617B697A6813441B781A46FB681A6128
:102AE4000023C7F8DC3004E0D7F8DC300133C7F842
:102AF400DC30D7F8DC3041F287329342F4DD00BF9A
:102B04000421F86800F02CFC0346002BF8D00023C5
:102B1400C7F8D83004E0D7F8D8300133C7F8D83034
:102B2400D7F8D83041F287329342F4DD0023C7F856
:102B3400D43004E0D7F8D4300133C7F8D430D7F810
:102B4400D43041F287329342F4DD7B6901337B61F7
:102B54007B697A6813441B781A46FB681A61002360
:102B6400C7F8D03004E0D7F8D0300133C7F8D030FC
:102B7400D7F8D03041F287329342F4DD00BF04210C
:102B8400F86800F0EDFB0346002BF8D00023C7F8EB
:102B9400CC3004E0D7F8CC300133C7F8CC30D7F8C8
:102BA400CC3041F287329342F4DD0023C7F8C830B9
:102BB40004E0D7F8C8300133C7F8C830D7F8C830B4
:102BC40041F287329342F4DD7B6901337B617B6997
:102BD4007A6813441B781A46FB681A610023C7F805
:102BE400C43004E0D7F8C4300133C7F8C430D7F890
:102BF400C43041F287329342F4DD00BF0421F86807
:102C040000F0AEFB0346002BF8D00023C7F8C03019
:102C140004E0D7F8C0300133C7F8C030D7F8C0306B
:102C240041F287329342F4DD0023C7F8BC3004E05C
:102C3400D7F8BC300133C7F8BC30D7F8BC3041F208
:102C440087329342F4DD7B6901337B617B697A6867
:102C540013441B781A46FB681A610023C7F8B8307E
:102C640004E0D7F8B8300133C7F8B830D7F8B83033
:102C740041F287329342F4DD00BF0421F86800F08A
:102C84006FFB0346002BF8D00023C7F8B43004E0F0
:102C9400D7F8B4300133C7F8B430D7F8B43041F2C0
:102CA40087329342F4DD0023C7F8B03007E000BF59
:102CB40080000700D7F8B0300133C7F8B030D7F838
:102CC400B03041F287329342F4DD7B6901337B619A
:102CD4007B697A6813441B781A46FB681A610023DF
:102CE400C7F8AC3004E0D7F8AC300133C7F8AC30E7
:102CF400D7F8AC3041F287329342F4DD00BF0421AF
:102D0400F86800F02DFB0346002BF8D00023C7F829
:102D1400A83004E0D7F8A8300133C7F8A830D7F8B2
:102D2400A83041F287329342F4DD0023C7F8A4307F
:102D340004E0D7F8A4300133C7F8A430D7F8A4309E
:102D440041F287329342F4DD7B6901337B617B6915
:102D54007A6813441B781A46FB681A610023C7F883
:102D6400A03004E0D7F8A0300133C7F8A030D7F87A
:102D7400A03041F287329342F4DD00BF0421F868A9
:102D840000F0EEFA0346002BF8D00023C7F89C307D
:102D940004E0D7F89C300133C7F89C30D7F89C3056
:102DA40041F287329342F4DD0023C7F8983004E0FF
:102DB400D7F898300133C7F89830D7F8983041F2F3
:102DC40087329342F4DD7B6901337B617B697A68E6
:102DD40013441B781A46FB681A610023C7F8943021
:102DE40004E0D7F894300133C7F89430D7F894301E
:102DF40041F287329342F4DD00BF0421F86800F009
:102E0400AFFA0346002BF8D00023C7F8903004E053
:102E1400D7F890300133C7F89030D7F8903041F2AA
:102E240087329342F4DD0023C7F88C3004E0D7F8EE
:102E34008C300133C7F88C30D7F88C3041F28732AC
:102E44009342F4DD3B680F2B40F2D7817B69013359
:102E54007B617B697A6813441B781A46FB681A61A4
:102E64000023C7F8883004E0D7F888300133C7F866
:102E74008830D7F8883041F287329342F4DD00BFBE
:102E84000421F86800F06CFA0346002BF8D0002304
:102E9400C7F8843004E0D7F884300133C7F88430AD
:102EA400D7F8843041F287329342F4DD0023C7F827
:102EB400803004E0D7F880300133C7F88030D7F889
:102EC400803041F287329342F4DD7B6901337B61C8
:102ED4007B697A6813441B781A46FB681A610023DD
:102EE400FB6702E0FB6F0133FB67FB6F41F2873244
:102EF4009342F7DD00BF0421F86800F031FA03467D
:102F0400002BF8D00023BB6702E0BB6F0133BB6723
:102F1400BB6F41F287329342F7DD00237B6702E007
:102F24007B6F01337B677B6F41F287329342F7DD1E
:102F34007B6901337B617B697A6813441B781A4689
:102F4400FB681A6100233B6702E03B6F01333B6778
:102F54003B6F41F287329342F7DD00BF0421F868EA
:102F640000F0FEF90346002BF8D00023FB6602E0D4
:102F7400FB6E0133FB66FB6E41F287329342F7DD51
:102F84000023BB6602E0BB6E0133BB66BB6E41F23D
:102F940087329342F7DD7B6901337B617B697A6811
:102FA40013441B781A46FB681A6100237B6602E00F
:102FB4007B6E01337B667B6E41F287329342F7DD91
:102FC40000BF0421F86800F0CBF90346002BF8D0C9
:102FD40000233B6602E03B6E01333B663B6E41F2ED
:102FE40087329342F7DD0023FB6502E0FB6D01337A
:102FF400FB65FB6D41F287329342F7DD7B69013358
:103004007B617B697A6813441B781A46FB681A61F2
:103014000023BB6502E0BB6D0133BB65BB6D41F2B0
:1030240087329342F7DD00BF0421F86800F098F975
:103034000346002BF8D000237B6502E07B6D01334F
:103044007B657B6D41F287329342F7DD00233B655C
:1030540002E03B6D01333B653B6D41F287329342A5
:10306400F7DD7B6901337B617B697A6813441B78E4
:103074001A46FB681A610023FB6402E0FB6C01330F
:10308400FB64FB6C41F287329342F7DD00BF0421FD
:10309400F86800F065F90346002BF8D00023BB6400
:1030A40002E0BB6C0133BB64BB6C41F287329342D8
:1030B400F7DD00237B6402E07B6C01337B647B6C73
:1030C40041F287329342F7DD7B6901337B617B698F
:1030D4007A6813441B781A46FB681A6100233B6420
:1030E40002E03B6C01333B643B6C41F28732934218
:1030F400F7DD00BF0421F86800F032F90346002B25
:10310400F8D00023FB6302E0FB6B0133FB63FB6B32
:1031140041F287329342F7DD0023BB6302E0BB6BCD
:103124000133BB63BB6B41F287329342F7DD7B69AA
:1031340001337B617B697A6813441B781A46FB6808
:103144001A6100237B6302E07B6B01337B637B6B3F
:1031540041F287329342F7DD00BF0421F86800F0A2
:10316400FFF80346002BF8D000233B6302E03B6BDF
:1031740001333B633B6B41F287329342F7DD00231B
:10318400FB6202E0FB6A0133FB62FB6A41F28732B5
:103194009342F7DD7B6901337B617B697A68134471
:1031A4001B781A46FB681A610023BB6202E0BB6A03
:1031B4000133BB62BB6A41F287329342F7DD00BF41
:1031C4000421F86800F0CCF80346002BF8D0002363
:1031D4007B6202E07B6A01337B627B6A41F2873265
:1031E4009342F7DD00233B6202E03B6A01333B621A
:1031F4003B6A41F287329342F7DD97F80031002BA6
:1032040015D10121F86800F031F902E0FB690133BE
:10321400FB61FB6941F287329342F7DD02E0BB694F
:103224000133BB61BB6941F287329342F7DD00BFD2
:10323400F837BD4680BD80B586B000AFF8607A60CF
:103244003B600B467B813B687B610121F86800F0A1
:103254006CF897F824301A460121F86800F03EF81B
:1032640000BF0121F86800F07BF80346002BF8D07A
:103274007B8901221946F86800F0DEF800BF0221BC
:10328400F86800F06DF80346002BF8D015E000BF95
:103294000321F86800F064F80346002BF8D0FB68BB
:1032A40019697B685A1C7A60CAB21A707B69012B4F
:1032B40003D10021F86800F038F87B695A1E7A615E
:1032C400002BE4D197F82030002B03D10121F868BA
:1032D40000F0CCF800BF1837BD4680BD80B582B081
:1032E40000AF78600B46FB701346BB70BB78012BB4
:1032F40007D100BF0021786800F032F80346002BA4
:10330400F8D1FB78012B06D17B681B6843F48072EB
:103314007B681A6005E07B681B6823F480727B6815
:103324001A6000BF0837BD4680BD80B483B000AFCB
:1033340078600B46FB70FB78002B06D07B681B681B
:1033440043F480627B681A6005E07B681B6823F4A1
:1033540080627B681A6000BF0C37BD4680BC704732
:1033640080B487B000AF786039600023FB75002318
:103374003B610023FB603B68052B11D83B68052BA0
:1033840052D801A252F823F0AF330008BF3300082B
:10339400CD3300081D3400080D3400080D34000836
:1033A4003B68244A934217D03EE07B689B695B08E4
:1033B400DBB203F00103FB7536E07B685B69DBB2CB
:1033C40003F00103FB752FE07B685B695B08DBB2EC
:1033D40003F00103FB7527E07B685B693B617B6855
:1033E4009B691B04FB603A69FB68134323F07F432A
:1033F400BB60BA683B6813403A689A420CBF012329
:103404000023DBB2FB750FE07B685B69DB09DBB291
:1034140003F00103FB7507E07B685B699B09DBB282
:1034240003F00103FB7500BFFB7D18461C37BD4646
:1034340080BC70478000070080B483B000AF786020
:103444000B467B8013467B707B885B007B807B789C
:10345400002B03D07B8843F001037B807A887B6850
:103464001A6100BF0C37BD4680BC704780B483B07E
:1034740000AF78600B46FB70FB78002B06D07B68AE
:103484001B6843F400727B681A6005E07B681B6864
:1034940023F400727B681A6000BF0C37BD4680BC01
:1034A400704780B483B000AF78600B46FB70FA7845
:1034B4007B681A6100BF0C37BD4680BC704780B47E
:1034C40083B000AF78607B681B69DBB218460C37A9
:1034D400BD4680BC704700BF80B485B000AF786043
:1034E4007B6803F4E0637B600C4BDB68FB60FB6888
:1034F40083F07F4383F47F03FB60FB6823F4E06382
:10350400FB60FA687B681343FB60044AFB68D36082
:1035140000BF1437BD4680BC704700BF00ED00E01B
:1035240080B400AF044BDB681B0A03F007031846A2
:10353400BD4680BC704700BF00ED00E080B485B09C
:1035440000AF0346FB71FB795B09FB73FB7903F066
:103554001F03BB73BA7B0649FB7B012000FA02F20E
:1035640041F8232000BF1437BD4680BC704700BF1C
:1035740000E100E080B485B000AF0346FB71FB7945
:103584005B09FB73FB7903F01F03BB73BA7B06492A
:10359400FB7B012000FA02F2203341F8232000BF14
:1035A4001437BD4680BC704700E100E080B485B0AC
:1035B40000AF0346FB71FB795B09FB73FB7903F0F6
:1035C4001F03BB73084AFB7B403352F82320BB7BA9
:1035D40022FA03F3DBB203F001037B737B7B18460F
:1035E4001437BD4680BC704700E100E080B485B06C
:1035F40000AF0346FB71FB795B09FB73FB7903F0B6
:103604001F03BB73094AFB7B403352F82310BB7B77
:1036140001229A400548FB7B0A43403340F82320AB
:1036240000BF1437BD4680BC704700BF00E100E016
:1036340080B485B000AF0346FB71FB795B09FB7373
:10364400FB7903F01F03BB73094AFB7B603352F819
:103654002310BB7B01229A400548FB7B0A4360335D
:1036640040F8232000BF1437BD4680BC704700BF1C
:1036740000E100E080B485B000AF0346FB71FB7944
:103684005B09BB73FB7903F01F037B730B4ABB7BA2
:10369400803352F823207B7B22FA03F303F00103E7
:1036A400002B02D00123FB7301E00023FB73FB7B9F
:1036B40018461437BD4680BC704700BF00E100E0E7
:1036C40080B485B000AF03460A46FB711346BB7154
:1036D400FB795B09FB73FB7903F01F03BB73074999
:1036E400FB7B9A00BB7B13440B44BA7983F8002319
:1036F40000BF1437BD4680BC704700BF00E100E046
:1037040080B485B000AF0346FB71FB795B09FB73A2
:10371400FB7903F01F03BB730649FB7B9A00BB7B59
:1037240013440B4493F80033DBB218461437BD46F8
:1037340080BC704700E100E080B400AF044BDB685C
:1037440003F4E0620249034B1343CB6000BFFDE77F
:1037540000ED00E00400FA0580B483B000AF034636
:10376400FB71FB79022B5CD0022B5CDC002B02D0BA
:10377400012B28D057E02F4B1B682E4A43F001033E
:10378400136000BF2B4B1B6803F00203002BF9D01E
:10379400284B9B68274A23F00303936000BF254B03
:1037A4009B689B0803F00303002BF8D1214B1B6893
:1037B400204A23F4803313601E4B1B681D4A23F0F8
:1037C4008073136030E01B4B1B681A4A43F4803348
:1037D400136000BF174B1B6803F40033002BF9D0B0
:1037E400144B9B68134A23F003039360114B9B68AB
:1037F400104A43F00103936000BF0E4B9B689B0883
:1038040003F00303012BF8D10A4B1B68094A23F088
:1038140001031360074B1B68064A23F0807313608F
:1038240002E000BF00E000BF00BF0C37BD4680BC13
:10383400704700BF0038024080B483B000AF034635
:10384400FB71FB79112B00F2908001A252F823F056
:103854009D380008AB380008B9380008C73800089C
:10386400D53800086F3900086F3900086F3900082F
:10387400E3380008F1380008FF3800080D39000863
:103884001B39000829390008373900084539000870
:103894005339000861390008374B1B6B364A43F033
:1038A4000103136362E0344B1B6B334A43F002039E
:1038B40013635BE0304B1B6B2F4A43F00403136329
:1038C40054E02D4B1B6B2C4A43F0080313634DE06B
:1038D400294B1B6B284A43F01003136346E0264B25
:1038E4005B6C254A43F0100353643FE0224B1B6C8E
:1038F400214A43F40033136438E01F4B5B6C1E4AC7
:1039040043F02003536431E01B4B5B6C1A4A43F4CD
:10391400805353642AE0184B1B6C174A43F48043CA
:10392400136423E0144B1B6C134A43F40013136415
:103934001CE0114B1B6C104A43F48003136415E024
:103944000D4B1B6B0C4A43F4805313630EE00A4B7C
:103954001B6C094A43F00103136407E0064B5B6CDC
:10396400054A43F48043536400E000BF00BF0C37B2
:10397400BD4680BC704700BF0038024080B483B0AD
:1039840000AF0346FB71FB79112B00F2908001A27A
:1039940052F823F0E1390008EF390008FD39000836
:1039A4000B3A0008193A0008B33A0008B33A000881
:1039B400B33A0008273A0008353A0008433A0008A9
:1039C400513A00085F3A00086D3A00087B3A000853
:1039D400893A0008973A0008A53A0008374B1B6952
:1039E400364A43F00103136162E0344B1B69334AE6
:1039F40043F0020313615BE0304B1B692F4A43F031
:103A04000403136154E02D4B1B692C4A43F0080353
:103A140013614DE0294B1B69284A43F010031361DD
:103A240046E0264B5B6A254A43F0100353623FE0AD
:103A3400224B1B6A214A43F40033136238E01F4BC4
:103A44005B6A1E4A43F02003536231E01B4B5B6AFE
:103A54001A4A43F4805353622AE0184B1B6A174AEC
:103A640043F48043136223E0144B1B6A134A43F468
:103A7400001313621CE0114B1B6A104A43F48003C9
:103A8400136215E00D4B1B690C4A43F48053136118
:103A94000EE00A4B1B6A094A43F00103136207E074
:103AA400064B5B6A054A43F48043536200E000BF5F
:103AB40000BF0C37BD4680BC704700BF00380240D1
:103AC40080B483B000AF104B9B689B0803F00303E2
:103AD400022B0CD0022B0DD8002B02D0012B03D0CB
:103AE40008E00A4B7B6008E0084B7B6005E0084B6C
:103AF4007B6002E000237B6000BF7B6818460C37C4
:103B0400BD4680BC704700BF0038024000127A00F6
:103B14000024F40080B500AFFFF7D2FF0246054B46
:103B24009B681B0903F007030349CB5C22FA03F3E8
:103B3400184680BD003802402454000880B584B083
:103B440000AF254B9B689B08DBB203F003037B7239
:103B54007B7A002B02D1214BFB600BE07B7A012B9B
:103B640002D11F4BFB6005E07B7A022B02D100F0EF
:103B74008DF8F860184B9B681B09DBB203F00F0348
:103B84003B723B7A072B02D80123FB7205E03B7A98
:103B9400083B144A32F81330FB720F4B9B689B0AA4
:103BA400DBB203F007033B723B7A032B02D80123F9
:103BB400BB7204E03B7A043B0B4AD35CBB72FB7AD6
:103BC400FA68B2FBF3F2BB7AB2FBF3F37B607B6877
:103BD40018461037BD4680BD003802400024F4006A
:103BE40000127A00400000205000002080B485B00C
:103BF40000AF0023FB60204B9B689B08DBB203F003
:103C040003037B727B7A002B02D11C4BFB6001E027
:103C14001B4BFB60184B9B681B0903F00F037B6075
:103C24007B68072B02D80123FB7205E07B68083B05
:103C3400144A32F81330FB720F4B9B685B0B03F092
:103C440007037B607B68032B02D80123BB7204E06B
:103C54007B68043B0C4AD35CBB72FB7AFA68B2FB08
:103C6400F3F2BB7AB2FBF3F33B603B6818461437BC
:103C7400BD4680BC704700BF003802400024F400F9
:103C840000127A00400000205000002080B487B069
:103C940000AF00237B6100233B610023FB60002312
:103CA400BB60184B5B689B09C3F308033B61154B6E
:103CB4005B6803F03F03FB60124B5B681B0C03F073
:103CC40003030133BB600F4B5B6803F48003002BD9
:103CD40002D00D4B7B6101E00C4B7B613B690133EE
:103CE4007A6903FB02F2FB680133B96801FB03F351
:103CF4005B00B2FBF3F37B607B6818461C37BD4660
:103D040080BC70470038024000127A000024F4009E
:103D140080B584B000AF786039600023FB81002354
:103D2400BB817B68364A934206D1364A3B681360AE
:103D34000B20FFF781FD05E0324A3B6853600C20FD
:103D4400FFF77AFDFB8943F04003FB813B681A8847
:103D5400FB891343FB813B685A88FB891343FB812E
:103D64003B68DA88FB891343FB813B689A88FB89AB
:103D74001343FB813B681A89FB891343FB813B682E
:103D84005A89FB891343FB813B689B89042B04D12B
:103D9400BB8943F00403BB8108E03B689B89002B8B
:103DA40004D03B689A89FB891343FB813B68DA8919
:103DB400FB891343FB813B681B8A002B15D03B68AE
:103DC4001A8AFB891343FB817B680D4A934206D10F
:103DD4000D4B1B680C4A43F00803136005E00A4BC3
:103DE4001B68094A43F010031360FA897B681A6060
:103DF400BA897B685A6000BF1037BD4680BD00BFDA
:103E040000300140EC02002004E100E080B582B003
:103E140000AF78607B680D4A934209D10C4B1B6854
:103E24000B4A23F0080313600B20FFF7A7FD08E0FB
:103E3400074B1B68064A23F0100313600C20FFF79E
:103E44009DFD00BF0837BD4680BD00BF0030014066
:103E540084E100E080B485B000AFF860B960134637
:103E6400FB71FB79002B06D100BFFB689B6803F054
:103E74000203002BF9D0BB681B881A46FB68DA6082
:103E840000BF1437BD4680BC704780B485B000AF16
:103E9400F860B9601346FB71FB79002B06D100BFB3
:103EA400FB689B6803F00103002BF9D0FB68DB6817
:103EB4009AB2BB681A8000BF1437BD4680BC7047F5
:103EC40080B586B000AF78607B68664A93426BD158
:103ED400654B1B681B88042B45D1634B1B689B896E
:103EE400002B14D0042B25D102233B7202237B72B6
:103EF40004237B810223FB6000233B6105237B6158
:103F040007F1080319465948FEF778F912E002232D
:103F14003B7202237B7204237B810023FB6000231A
:103F24003B6105237B6107F1080319464F48FEF7FF
:103F340065F900BF05237B8107F1080319464B4847
:103F4400FEF75CF906237B8107F10803194647480D
:103F5400FEF754F907237B8107F108031946434808
:103F6400FEF74CF979E004237B8107F10803194635
:103F74003E48FEF743F905237B8107F10803194600
:103F84003A48FEF73BF906237B8107F108031946FB
:103F94003648FEF733F907237B8107F108031946F6
:103FA4003248FEF72BF958E02F4B5B681B88042B33
:103FB40033D12D4B5B689B89002B0AD0042B13D182
:103FC4000C237B8107F1080319462948FEF716F9EB
:103FD4000AE00C237B810023FB6007F108031946E8
:103FE4002348FEF70BF900BF0D237B8107F108037B
:103FF40019461F48FEF702F90E237B8107F10803D7
:1040040019461B48FEF7FAF80F237B8107F10803D2
:1040140019461748FEF7F2F81FE00C237B8107F1DD
:10402400080319461248FEF7E9F80D237B8107F1CE
:10403400080319460E48FEF7E1F80E237B8107F1C9
:10404400080319460A48FEF7D9F80F237B8107F1C4
:10405400080319460648FEF7D1F800BF1837BD46D5
:1040640080BD00BF00300140EC020020000002408F
:104074000004024080B485B000AFF860B960134614
:10408400FB71FB79002B06D100BFFB689B6803F032
:104094000203002BF9D0BB681B881A46FB68DA6060
:1040A400FB79002B06D100BFFB689B6803F001037A
:1040B400002BF9D0FB68DB689AB2BB681A8000BF9A
:1040C4001437BD4680BC704780B582B000AF134B37
:1040D4009B685B0803F00103DAB23B7962F30003E7
:1040E4003B710E4B9B6803F00103DAB23B7962F338
:1040F40041033B71094B9B681B0903F00103DAB2CE
:104104003B7962F382033B71054B1B685B69387929
:10411400984700BF0837BD4680BD00BF003001404E
:10412400EC02002080B582B000AF134B9B685B08A3
:1041340003F00103DAB23B7962F300033B710E4BE7
:104144009B6803F00103DAB23B7962F341033B71EC
:10415400094B9B681B0903F00103DAB23B7962F354
:1041640082033B71054B5B685B693879984700BFF4
:104174000837BD4680BD00BF00380040EC02002077
:1041840080B584B000AF78607B689B7803F002034D
:10419400DAB27B689A707B685B7803F00403DAB266
:1041A4007B685A707B689A787B685B781343DBB2D0
:1041B400FB600C4AFB6813607B685B68184600F080
:1041C40015F87B689B78022B04D17B689B681846A2
:1041D40000F020F87B681A78034B1A7000BF103780
:1041E400BD4680BD10E000E0F802002080B483B03A
:1041F40000AF78607B6823F07F437B6001237B60A2
:10420400034A7B68536000BF0C37BD4680BC7047CF
:1042140010E000E080B483B000AF7860034A7B68AC
:10422400136000BF0C37BD4680BC7047F402002009
:1042340080B400AF064B00229A60054B1B68044A09
:1042440043F00103136000BFBD4680BC704700BF4C
:1042540010E000E080B400AF044B1B68034A23F075
:104264000103136000BFBD4680BC704710E000E04E
:1042740080B584B000AF7860174B5B68FB60164B69
:104284001B68BB60144B00221A60134B1B68124A54
:1042940003F4803313607B68013B1846FFF7A6FFE5
:1042A4000D4B1B680C4A43F004031360FFF7C0FF77
:1042B40000BF094B1B6803F48033002BF9D0FFF7D0
:1042C400C9FF054AFB685360034ABB68136000BF1B
:1042D4001037BD4680BD00BF10E000E080B584B05B
:1042E40000AF786041F63F73BB600023FB6005E0DC
:1042F400B868FFF7BDFFFB680133FB60FA687B68B1
:104304009A42F5D300BF00BF1037BD4680BD80B5CB
:1043140000AF074B1B78002B01D1FFF79BFF054B28
:104324001B68002B02D0034B1B68984700BF80BD5D
:10433400F8020020F402002080B400AF114B1B6C83
:10434400104A43F0010313644FF0804307229A623A
:104354004FF080434CF25032DA624FF080431B68D6
:104364004FF0804243F00103136000BF4FF08043DD
:104374001B6903F00103002BF8D000BF00BFBD464A
:1043840080BC70470038024080B483B000AF7860CE
:104394004FF0804300225A6200BF4FF080435A6AB4
:1043A4007B689A42F9D300BF00BF0C37BD4680BC7E
:1043B400704780B584B000AF78600023FB600023B1
:1043C400FB6006E04FF47A70FFF7DEFFFB68013311
:1043D400FB60FA687B689A42F4DB00BF00BF1037C9
:1043E400BD4680BDB0B584B000AF786039607B68ED
:1043F4005D4A93420DD10820FFF71EFA5B4A3B68E1
:1044040014461D460FCD0FC495E8070084E8070045
:1044140024E07B68564A93420ED10920FFF70CFA38
:10442400524B3A6803F11C0415460FCD0FC495E8AE
:10443400070084E8070011E07B684E4A93420DD1DF
:104444000A20FFF7F9F9494B3A6803F13804154695
:104454000FCD0FC495E8070084E807007B68DB688C
:1044640043F400527B68DA607B68DB683A68127850
:104474001A437B68DA607B68DB683A68127A1A430D
:104484007B68DA607B68DA683B68DB681A437B68C0
:10449400DA607B681A693B681B691A437B681A6196
:1044A4007B685B693A68127D1A437B685A617B6852
:1044B4002D4A934203D1FFF799FBF86002E0FFF71E
:1044C4003DFBF8603B685B681B01FA68B2FBF3F3E1
:1044D4001901FA6813469B0013449A001A443B6876
:1044E4005B689B00B2FBF3F23B685B681B01F868F6
:1044F400B0FBF3F3642000FB03F3D31A1B011E4A41
:10450400A2FB03235B0903F00F030B43BB607B682F
:10451400BA689A603B685B7D002B1DD07B68DB68C2
:104524003A68527D1A437B68DA607B680E4A93428C
:1045340003D12520FFF702F80EE07B680C4A934272
:1045440003D12620FEF7FAFF06E07B68094A93426E
:1045540002D14720FEF7F2FF786800F03DF800BF73
:104564001037BD46B0BD00BF00100140FC02002062
:1045740000440040001401401F85EB5180B582B017
:1045840000AF78607B68114A934206D10820FFF798
:10459400F5F92520FEF7EEFF14E07B680C4A934200
:1045A40006D10920FFF7EAF92620FEF7E3FF09E028
:1045B4007B68084A934205D10A20FFF7DFF94720B8
:1045C400FEF7D8FF00BF0837BD4680BD001001408C
:1045D400004400400014014080B586B000AF78600C
:1045E4007B68404A934225D10020FFF725F909232F
:1045F4007B8102233B7200233B610023FB60022387
:104604007B7207237B6107F1080319463648FDF7DF
:10461400F5FD0A237B8102233B720123FB60022305
:104624007B7207237B6107F1080319462E48FDF7C7
:10463400E5FD52E07B682D4A934225D10020FFF727
:10464400FBF802237B8102233B7200233B6100239E
:10465400FB6002237B7207237B6107F10803194681
:104664002148FDF7CBFD03237B8102233B72012309
:10467400FB6002237B7207237B6107F10803194661
:104684001948FDF7BBFD28E07B68194A934224D101
:104694000220FFF7D1F806237B8102233B7200231B
:1046A4003B610023FB6002237B7208237B6107F1DB
:1046B400080319460F48FDF7A1FD07237B81022358
:1046C4003B720123FB6002237B7208237B6107F1A9
:1046D400080319460748FDF791FD00BF1837BD468A
:1046E40080BD00BF001001400000024000440040B3
:1046F400001401400008024080B485B000AFF860A7
:10470400B9601346FB71FB79002B06D100BFFB682F
:104714001B6803F08003002BF9D0FB68104A934216
:1047240005D1BB681B88DAB2FB685A6012E0FB68EB
:104734000C4A934205D1BB681B88DAB2FB685A6005
:1047440008E0FB68084A934204D1BB681B88DAB2CC
:10475400FB685A6000BF1437BD4680BC704700BF79
:1047640000100140004400400014014080B586B0B0
:1047740000AFF860B9601346FB71FB79002B1DD0C4
:104784000023FB750AE0FB7DBA6813440022194636
:10479400F868FFF7B1FFFB7D0133FB75FA7DFB7908
:1047A4009A42F0D30EE00022B968F868FFF7A4FF3C
:1047B400F86800F0A1F8BB680133BB60BB681B78E4
:1047C400002BF0D100BF1837BD4680BD80B485B042
:1047D40000AFF860B9601346FB71FB79002B06D17A
:1047E40000BFFB681B6803F02003002BF9D0FB68B3
:1047F400234A934212D1234BDB68002B05D1FB687B
:104804005B689BB2DBB29BB205E0FB685B689BB262
:1048140003F07F039BB2BA6813802CE0FB681A4A4A
:10482400934212D1174B9B6A002B05D1FB685B683E
:104834009BB2DBB29BB205E0FB685B689BB203F002
:104844007F039BB2BA68138015E0FB680F4A93425A
:1048540011D10C4B5B6C002B05D1FB685B689BB2E0
:10486400DBB29BB205E0FB685B689BB203F07F039D
:104874009BB2BA68138000BF1437BD4680BC704732
:1048840000100140FC0200200044004000140140DC
:1048940080B586B000AFF860B9601346FB71FB7950
:1048A400002B13D00023FB750BE0FB7D5B00BA6883
:1048B400134400221946F868FFF788FFFB7D013393
:1048C400FB75FA7DFB799A42EFD311E007F11603E9
:1048D40000221946F868FFF779FFBB7D0D2B06D03F
:1048E400B97DBB689A1CBA600A461A80EEE700BF1D
:1048F40000BF1837BD4680BD80B483B000AF786078
:1049040000BF7B681B6803F04003002BF9D000BF95
:1049140000BF0C37BD4680BC704780B500AF252072
:10492400FEF786FE044B9B69002B02D0024B9B6969
:10493400984700BF80BD00BFFC02002080B500AFD7
:104944002620FEF775FE044B5B6B002B02D0024B56
:104954005B6B984700BF80BDFC02002080B500AFB0
:104964004720FEF765FE044B1B6D002B02D0024B63
:104974001B6D984700BF80BDFC020020002103E0AE
:104984000A4B5B584350043109480A4B42189A4277
:10499400F6D3094A02E0002342F8043B074B9A424B
:1049A400F9D3FCF77FFDFCF73DFC70476854000821
:1049B40000000020B0000020B0000020A00400206F
:1049C400FEE7000008B5064B044613B10021AFF31F
:1049D4000080044B1B6803B198472046FCF747FC52
:1049E4000000000088040020002310B50446C0E93C
:1049F4000033C0E90433836081814366C2818361EB
:104A0400194608225C3000F07CF90D4B63620D4BB3
:104A1400A3620D4BE3620D4B23630D4B24629C4256
:104A240006D003F16802944202D0D0339C4205D1EF
:104A340004F15800BDE8104000F033BA10BD00BFC7
:104A44007D4C0008A34C0008DB4C0008FF4C000818
:104A540050030020024A0349034800F0EFB800BFA6
:104A640054000020AD5100086400002041680C4B44
:104A7400994210B5044601D000F096FBA168094B99
:104A8400994202D0204600F08FFBE168064B994220
:104A940004D02046BDE8104000F086BB10BD00BF26
:104AA40050030020B80300202004002008B54B6EFA
:104AB400DA0705D48B899B0502D4886D00F0F5F9DB
:104AC400002008BD08B54B6EDA0705D48B899B0519
:104AD40002D4886D00F0EFF9002008BD10B50B4B2F
:104AE4000B4C0C4A1A60204600220421FFF77CFF7D
:104AF40004F1680001220921FFF776FF04F1D000D8
:104B04000222BDE810401221FFF76EBF8804002086
:104B140050030020594A0008014800F0C6B900BFFC
:104B240097040020014800F0C6B900BF9704002094
:104B3400F8B50746FFF7F0FF234B1B680BB9FFF7E7
:104B4400CDFF224ED6E90134013B0FD53568002D47
:104B540037D14FF4D671384600F01AFA044628BB10
:104B64003060FFF7DFFF0C233B601BE0B4F90C500F
:104B7400D5B9174BE36004F15800656600F091F96C
:104B8400FFF7D0FFC4E90155C4E904552560A561C8
:104B94000822294604F15C0000F0B3F8C4E90D557D
:104BA400C4E912552046F8BD6834CDE704230560F6
:104BB40043600C30A0604FF4D072294600F0A1F895
:104BC40034603668BEE700BF88040020540000202B
:104BD4000100FFFF10B50446FFF79EFF236A1BB1D7
:104BE400BDE81040FFF79EBF044B2362044B1B68D3
:104BF400002BF5D1FFF772FFF2E700BF714A0008FE
:104C04008804002008B5FFF787FFBDE80840024A82
:104C14000249002000F012B854000020B14A0008F4
:104C240008B5044A0449002000F008F8BDE808402B
:104C3400FFF778BF54000020C94A00082DE9F84363
:104C44000746884614460026D4E90195B9F10109BE
:104C540005D52468002CF7D13046BDE8F883AB892C
:104C6400012B07D9B5F90E30013303D02946384654
:104C7400C04706436835E9E710B50C46B1F90E1094
:104C840000F0C0F80028ABBF636DA3891B1823F4A0
:104C94008053ACBF6365A38110BD002070472DE92C
:104CA400F0411F468B89DB0505460C46164605D5A3
:104CB400B1F90E100223002200F092F8A389B4F98E
:104CC4000E1023F48053A38132463B462846BDE8A8
:104CD400F04100F0A9B810B50C46B1F90E1000F07F
:104CE4007FF8431CA38915BF606523F4805343F404
:104CF4008053A38118BFA38110BDB1F90E1000F039
:104D040009B802440346934200D1704703F8011BDB
:104D1400F9E7000038B5064D0023044608462B6029
:104D2400FCF7E9FA431C02D12B6803B1236038BDB8
:104D34008C040020294B1B68834270B504464BD079
:104D4400C369ABB1DB686BB10025E369DB68595912
:104D540000293BD10435802DF7D1E3692046D96879
:104D640000F0AAF8E369196811B1204600F0A4F82C
:104D7400616911B1204600F09FF8E16911B1204644
:104D840000F09AF8216B11B1204600F095F8616BA0
:104D940011B1204600F090F8A16B11B1204600F04B
:104DA4008BF8A16C11B1204600F086F8616C11B14A
:104DB400204600F081F8E16A11B1204600F07CF849
:104DC400236A4BB12046BDE8704018470E68204660
:104DD40000F072F83146BBE770BD00BF60000020F0
:104DE40038B5074D04460846114600222A601A4683
:104DF400FCF7A5FA431C02D12B6803B1236038BD2C
:104E04008C04002038B5074D04460846114600229C
:104E14002A601A46FCF736FA431C02D12B6803B108
:104E2400236038BD8C04002038B5074D044608467D
:104E3400114600222A601A46FCF741FA431C02D1AB
:104E44002B6803B1236038BD8C040020014B186823
:104E5400704700BF6000002070B50D4D0D4C641B01
:104E6400A4100026A64209D10B4D0C4C00F0EAF91F
:104E7400641BA4100026A64205D170BD55F8043B5E
:104E840098470136EEE755F8043B98470136F2E7B8
:104E9400605400086054000860540008645400081A
:104EA40070477047704770477047704701207047DC
:104EB400012070477047704738B50546002941D036
:104EC40051F8043C0C1F002BB8BFE41800F0E0F8C4
:104ED4001D4A136833B9636014602846BDE838403E
:104EE40000F0DCB8A34208D9206821188B4201BF26
:104EF40019685B6809182160EDE71A465B680BB115
:104F0400A342FAD911685018A0420BD12068014479
:104F1400501883421160E0D118685B6853600844FC
:104F24001060DAE702D90C232B60D6E72068211839
:104F34008B4204BF19685B68636004BF0918216071
:104F44005460CAE738BD00BF9C04002070B50F4E02
:104F54000C463168054611B900F062F9306021460B
:104F6400284600F05DF9431C03D14FF0FF3420467E
:104F740070BDC41C24F00304A042F8D0211A2846B2
:104F840000F04EF90130F2D1EFE700BF98040020A1
:104F94002DE9F843CD1C25F0030508350C2D38BF49
:104FA4000C25002D064601DBA94204D90C233360ED
:104FB4000020BDE8F883DFF8D48000F069F8D8F861
:104FC40000301C4644BB29463046FFF7BFFF431C54
:104FD400044658D1D8F800402746002F43D1002C6E
:104FE4004BD023683946304604EB030900F018F926
:104FF400814542D121686D1A29463046FFF7A6FF44
:1050040001303AD023682B442360D8F800305A6822
:1050140062BBC8F800700FE02268521B20D40B2A30
:1050240017D96119A342256018BF5960636808BF86
:10503400C8F8001062514B60304600F02FF804F1BC
:105044000B00231D20F00700C21A1CBF1B1AA3501B
:10505400AFE76268A3420CBFC8F800205A60EBE7D0
:1050640023466468AEE73C467F68B6E71A465B6849
:10507400A342FBD100235360DEE70C2333603046A8
:1050840000F00CF894E70560D6E700BF9C0400200C
:105094000148FFF70ABF00BF940400200148FFF74E
:1050A4000ABF00BF94040020B1F90C20F8B516071C
:1050B40005460C4654D44B68002B02DC0B6C002BC9
:1050C40048DDE66A002E45D0002312F480522F6892
:1050D400216A2B6030D0626DA389590705D56368B6
:1050E400D21A636B0BB1236CD21A0023E66A216ACD
:1050F4002846B047431CA38906D129681D292BD80B
:10510400284A0A41D60727D400226260D9042269BA
:10511400226004D5421C01D12B6803B96065616B20
:105124002F60B9B104F14403994202D02846FFF735
:10513400C3FE002363630DE001232846B047024603
:10514400501CC9D12B68002BC6D01D2B01D0162BA7
:105154001DD12F60002021E043F040031BB21AE070
:105164000F69002FF6D093070E6808BF4B690F60D4
:1051740018BF0023F61B8B60002EEBDD216AD4F8E8
:1051840028C033463A462846E047002807DCB4F9ED
:105194000C3043F04003A3814FF0FF30F8BD0744C7
:1051A400361AE9E7FEFFBFDF38B50B6905460C4642
:1051B40013B90025284638BD18B1036A0BB9FFF7A7
:1051C40009FDB4F90C30002BF3D0626ED00704D47F
:1051D400990502D4A06DFFF768FE28462146FFF723
:1051E40063FF636EDA070546E4D4A3899B05E1D423
:1051F400A06DFFF760FEDDE7014620B9044A0549CA
:105204000548FFF71BBD054B1868FFF7CDBF00BF6E
:1052140054000020AD51000864000020600000200C
:1052240038B5064D0023044608462B60FCF704F904
:10523400431C02D12B6803B1236038BD8C040020C9
:1052440000000000F8B500BFF8BC08BC9E467047DB
:0C525400F8B500BFF8BC08BC9E467047CF
:105260003D400B401040264035400340064014406E
:105270000E400D4025401240284002401840094091
:105280000A40000020596F7572205363616E6E658D
:10529000642049442069733A20000000456E74651B
:1052A000722075736572312049443A0055736572F6
:1052B000312049443A200000456E746572207573B0
:1052C000657231205057443A0000000055736572F2
:1052D000312050617373776F72643A2000000000D0
:1052E000456E7465722075736572322049443A00C8
:1052F00055736572322049443A200000456E74654A
:1053000072207573657232205057443A00000000D5
:1053100055736572322050617373776F72643A20EF
:1053200000000000456E746572207573657233204D
:1053300049443A0055736572332049443A200000CD
:10534000456E746572207573657233205057443A08
:105350000000000055736572332050617373776FDE
:1053600072643A200000000053797374656D2069FF
:1053700073204F4E000000002D2D2D2D57656C63BE
:105380006F6D65212D2D2D005061726B696E672048
:1053900069732066756C6C21000000004944206E22
:1053A0006F7420616C6C6F7765640000506C656190
:1053B0007365205363616E20494421210000000081
:1053C000536C6F74732066726565210049442053E5
:1053D00063616E6E6564212100000000456E746596
:1053E000722050617373776F72643A0020456E7457
:1053F00065722067617465206F70656E2100000022
:1054000020457869742067617465206F70656E212E
:105410000000000020554E4B4E4F574E204944216E
:105420000000000000000000000000000102030472
:10543000060708093D400B40104026403540034018
:10544000064014400E400D402540124028400240C6
:08545000184009400A40000069
:085458007CADFF7F01000000A4
:04546000B901000886
:0454640095010008A6
:10546800000000006502000803010101A4010020FA
:1054780000BD010500000000000000000102030457
:10548800060708092A30233738393435363132339C
:1054980000000100030004000500060007000000EA
:1054A8000200040008001000400080000001000213
:1054B8000204081000000000030000005003002050
:1054C800640000200000000050030020B803002002
:1054D8002004002000000000000000000000000080
:1054E80000000000000000000000000000000000B4
:1054F80000000000000000000000000000000000A4
:105508000000000000000000000000000000000093
:040000050800498125
:00000001FF
